{
  "contractName": "SimpleContract",
  "abi": [
    {
      "inputs": [],
      "stateMutability": "nonpayable",
      "type": "constructor"
    },
    {
      "anonymous": false,
      "inputs": [
        {
          "indexed": false,
          "internalType": "address",
          "name": "owner",
          "type": "address"
        },
        {
          "indexed": false,
          "internalType": "uint256",
          "name": "amount",
          "type": "uint256"
        }
      ],
      "name": "FundsPulled",
      "type": "event"
    },
    {
      "anonymous": false,
      "inputs": [
        {
          "indexed": false,
          "internalType": "bytes32",
          "name": "name",
          "type": "bytes32"
        },
        {
          "indexed": false,
          "internalType": "uint256",
          "name": "price",
          "type": "uint256"
        },
        {
          "indexed": false,
          "internalType": "address",
          "name": "seller",
          "type": "address"
        }
      ],
      "name": "ItemAdded",
      "type": "event"
    },
    {
      "anonymous": false,
      "inputs": [
        {
          "indexed": false,
          "internalType": "uint256",
          "name": "itemID",
          "type": "uint256"
        },
        {
          "indexed": false,
          "internalType": "address",
          "name": "buyer",
          "type": "address"
        },
        {
          "indexed": false,
          "internalType": "address",
          "name": "seller",
          "type": "address"
        }
      ],
      "name": "ItemPurchased",
      "type": "event"
    },
    {
      "anonymous": false,
      "inputs": [
        {
          "indexed": false,
          "internalType": "uint256",
          "name": "itemID",
          "type": "uint256"
        }
      ],
      "name": "ItemRemoved",
      "type": "event"
    },
    {
      "inputs": [
        {
          "internalType": "address",
          "name": "",
          "type": "address"
        }
      ],
      "name": "_pendingWithdrawals",
      "outputs": [
        {
          "internalType": "uint256",
          "name": "",
          "type": "uint256"
        }
      ],
      "stateMutability": "view",
      "type": "function",
      "constant": true
    },
    {
      "inputs": [],
      "name": "asset_count",
      "outputs": [
        {
          "internalType": "uint256",
          "name": "",
          "type": "uint256"
        }
      ],
      "stateMutability": "view",
      "type": "function",
      "constant": true
    },
    {
      "inputs": [
        {
          "internalType": "bytes32",
          "name": "",
          "type": "bytes32"
        }
      ],
      "name": "assets",
      "outputs": [
        {
          "internalType": "bytes32",
          "name": "asset_id",
          "type": "bytes32"
        },
        {
          "internalType": "address",
          "name": "owner",
          "type": "address"
        }
      ],
      "stateMutability": "view",
      "type": "function",
      "constant": true
    },
    {
      "inputs": [
        {
          "internalType": "uint256",
          "name": "",
          "type": "uint256"
        }
      ],
      "name": "bid_asset_map",
      "outputs": [
        {
          "internalType": "bytes32",
          "name": "asset_id",
          "type": "bytes32"
        },
        {
          "internalType": "address",
          "name": "owner",
          "type": "address"
        }
      ],
      "stateMutability": "view",
      "type": "function",
      "constant": true
    },
    {
      "inputs": [],
      "name": "bid_count",
      "outputs": [
        {
          "internalType": "uint256",
          "name": "",
          "type": "uint256"
        }
      ],
      "stateMutability": "view",
      "type": "function",
      "constant": true
    },
    {
      "inputs": [
        {
          "internalType": "bytes32",
          "name": "",
          "type": "bytes32"
        }
      ],
      "name": "bid_rfq_map",
      "outputs": [
        {
          "internalType": "uint256",
          "name": "",
          "type": "uint256"
        }
      ],
      "stateMutability": "view",
      "type": "function",
      "constant": true
    },
    {
      "inputs": [
        {
          "internalType": "uint256",
          "name": "",
          "type": "uint256"
        }
      ],
      "name": "bids",
      "outputs": [
        {
          "internalType": "uint256",
          "name": "bid_id",
          "type": "uint256"
        },
        {
          "internalType": "bytes32",
          "name": "bidasset_id",
          "type": "bytes32"
        },
        {
          "internalType": "bytes32",
          "name": "request_id",
          "type": "bytes32"
        }
      ],
      "stateMutability": "view",
      "type": "function",
      "constant": true
    },
    {
      "inputs": [],
      "name": "request_count",
      "outputs": [
        {
          "internalType": "uint256",
          "name": "",
          "type": "uint256"
        }
      ],
      "stateMutability": "view",
      "type": "function",
      "constant": true
    },
    {
      "inputs": [
        {
          "internalType": "bytes32",
          "name": "",
          "type": "bytes32"
        }
      ],
      "name": "requests",
      "outputs": [
        {
          "internalType": "bytes32",
          "name": "rfq_id",
          "type": "bytes32"
        },
        {
          "internalType": "bool",
          "name": "isSet",
          "type": "bool"
        }
      ],
      "stateMutability": "view",
      "type": "function",
      "constant": true
    },
    {
      "inputs": [
        {
          "internalType": "bytes32",
          "name": "name",
          "type": "bytes32"
        },
        {
          "internalType": "uint256",
          "name": "price",
          "type": "uint256"
        }
      ],
      "name": "addNewItem",
      "outputs": [
        {
          "internalType": "uint256",
          "name": "",
          "type": "uint256"
        }
      ],
      "stateMutability": "nonpayable",
      "type": "function"
    },
    {
      "inputs": [
        {
          "internalType": "bytes32",
          "name": "asset_id",
          "type": "bytes32"
        },
        {
          "internalType": "string[]",
          "name": "asset_capabilities",
          "type": "string[]"
        }
      ],
      "name": "createasset",
      "outputs": [],
      "stateMutability": "nonpayable",
      "type": "function"
    },
    {
      "inputs": [
        {
          "internalType": "bytes32",
          "name": "rfq_id",
          "type": "bytes32"
        },
        {
          "internalType": "string[]",
          "name": "rfq_capabilities",
          "type": "string[]"
        }
      ],
      "name": "createrfq",
      "outputs": [],
      "stateMutability": "nonpayable",
      "type": "function"
    },
    {
      "inputs": [],
      "name": "allRfQ",
      "outputs": [
        {
          "internalType": "uint256",
          "name": "",
          "type": "uint256"
        }
      ],
      "stateMutability": "nonpayable",
      "type": "function"
    },
    {
      "inputs": [
        {
          "internalType": "bytes32",
          "name": "bidasset_id",
          "type": "bytes32"
        },
        {
          "internalType": "bytes32",
          "name": "request_id",
          "type": "bytes32"
        }
      ],
      "name": "createbid",
      "outputs": [],
      "stateMutability": "payable",
      "type": "function",
      "payable": true
    },
    {
      "inputs": [
        {
          "internalType": "string",
          "name": "a",
          "type": "string"
        },
        {
          "internalType": "string",
          "name": "b",
          "type": "string"
        }
      ],
      "name": "compareStrings",
      "outputs": [
        {
          "internalType": "bool",
          "name": "",
          "type": "bool"
        }
      ],
      "stateMutability": "view",
      "type": "function",
      "constant": true
    },
    {
      "inputs": [],
      "name": "getAllBidsAssets",
      "outputs": [
        {
          "components": [
            {
              "internalType": "bytes32",
              "name": "asset_id",
              "type": "bytes32"
            },
            {
              "internalType": "string[]",
              "name": "asset_capabilities",
              "type": "string[]"
            },
            {
              "internalType": "address",
              "name": "owner",
              "type": "address"
            }
          ],
          "internalType": "struct SimpleContract.asset[]",
          "name": "",
          "type": "tuple[]"
        }
      ],
      "stateMutability": "view",
      "type": "function",
      "constant": true
    },
    {
      "inputs": [],
      "name": "getAllBids",
      "outputs": [
        {
          "components": [
            {
              "internalType": "bytes32",
              "name": "asset_id",
              "type": "bytes32"
            },
            {
              "internalType": "string[]",
              "name": "asset_capabilities",
              "type": "string[]"
            },
            {
              "internalType": "address",
              "name": "owner",
              "type": "address"
            }
          ],
          "internalType": "struct SimpleContract.asset[]",
          "name": "",
          "type": "tuple[]"
        }
      ],
      "stateMutability": "view",
      "type": "function",
      "constant": true
    },
    {
      "inputs": [
        {
          "internalType": "bytes32",
          "name": "request_id",
          "type": "bytes32"
        }
      ],
      "name": "getAllBidsForRFQ",
      "outputs": [
        {
          "components": [
            {
              "internalType": "bytes32",
              "name": "asset_id",
              "type": "bytes32"
            },
            {
              "internalType": "string[]",
              "name": "asset_capabilities",
              "type": "string[]"
            },
            {
              "internalType": "address",
              "name": "owner",
              "type": "address"
            }
          ],
          "internalType": "struct SimpleContract.asset",
          "name": "",
          "type": "tuple"
        }
      ],
      "stateMutability": "view",
      "type": "function",
      "constant": true
    },
    {
      "inputs": [
        {
          "internalType": "bytes32",
          "name": "asset_id",
          "type": "bytes32"
        }
      ],
      "name": "getassetOwnership",
      "outputs": [
        {
          "internalType": "address",
          "name": "owner",
          "type": "address"
        }
      ],
      "stateMutability": "view",
      "type": "function",
      "constant": true
    },
    {
      "inputs": [
        {
          "internalType": "address",
          "name": "new_owner",
          "type": "address"
        },
        {
          "internalType": "bytes32",
          "name": "asset_id",
          "type": "bytes32"
        }
      ],
      "name": "tranferasset",
      "outputs": [],
      "stateMutability": "payable",
      "type": "function",
      "payable": true
    }
  ],
  "bytecode": "0x608060405234801561001057600080fd5b5060006009819055506000600b819055506000600a819055506122bb806100386000396000f3fe60806040526004361061011f5760003560e01c80639b9ca17d116100a0578063c056216811610064578063c05621681461043f578063c3662b281461046a578063c76f292f146104a7578063d63f999a146104d2578063ffcc47d7146104ee5761011f565b80639b9ca17d146103305780639d8669851461035b5780639fda5b6614610399578063bb82bee8146103d7578063bed34bba146104025761011f565b80634423c5f1116100e75780634423c5f11461022f5780634d8017041461026e578063529fa3a2146102ac578063602e3a2b146102e95780638d0f6da3146103055761011f565b806301338d5d1461012457806302628e9514610161578063092614d21461019e5780632957ba4c146101db5780633b3c6b0614610204575b600080fd5b34801561013057600080fd5b5061014b600480360381019061014691906114f6565b610517565b6040516101589190611545565b60405180910390f35b34801561016d57600080fd5b5061018860048036038101906101839190611560565b610663565b60405161019591906115ce565b60405180910390f35b3480156101aa57600080fd5b506101c560048036038101906101c09190611560565b6106a3565b6040516101d29190611545565b60405180910390f35b3480156101e757600080fd5b5061020260048036038101906101fd9190611815565b6106bb565b005b34801561021057600080fd5b50610219610752565b6040516102269190611545565b60405180910390f35b34801561023b57600080fd5b5061025660048036038101906102519190611871565b610758565b604051610265939291906118ad565b60405180910390f35b34801561027a57600080fd5b5061029560048036038101906102909190611871565b610782565b6040516102a39291906118e4565b60405180910390f35b3480156102b857600080fd5b506102d360048036038101906102ce9190611560565b6107c6565b6040516102e09190611ac5565b60405180910390f35b61030360048036038101906102fe9190611b13565b61093f565b005b34801561031157600080fd5b5061031a610998565b6040516103279190611c65565b60405180910390f35b34801561033c57600080fd5b50610345610bb9565b6040516103529190611545565b60405180910390f35b34801561036757600080fd5b50610382600480360381019061037d9190611560565b610bbf565b604051610390929190611ca2565b60405180910390f35b3480156103a557600080fd5b506103c060048036038101906103bb9190611560565b610bf0565b6040516103ce9291906118e4565b60405180910390f35b3480156103e357600080fd5b506103ec610c34565b6040516103f99190611545565b60405180910390f35b34801561040e57600080fd5b5061042960048036038101906104249190611ccb565b610c3e565b6040516104369190611d43565b60405180910390f35b34801561044b57600080fd5b50610454610c97565b6040516104619190611545565b60405180910390f35b34801561047657600080fd5b50610491600480360381019061048c9190611d5e565b610c9d565b60405161049e9190611545565b60405180910390f35b3480156104b357600080fd5b506104bc610cb5565b6040516104c99190611c65565b60405180910390f35b6104ec60048036038101906104e79190611d8b565b610d39565b005b3480156104fa57600080fd5b5061051560048036038101906105109190611815565b611264565b005b60008060405180608001604052808581526020018481526020013373ffffffffffffffffffffffffffffffffffffffff1681526020016000600281111561056157610560611dcb565b5b8152509080600181540180825580915050600190039060005260206000209060030201600090919091909150600082015181600001556020820151816001015560408201518160020160006101000a81548173ffffffffffffffffffffffffffffffffffffffff021916908373ffffffffffffffffffffffffffffffffffffffff16021790555060608201518160020160146101000a81548160ff0219169083600281111561061357610612611dcb565b5b021790555050507f1417a1fe8928926d99d994b5448477f9b5c50107df1474d7cad96769b9fd0ac883833360405161064d93929190611dfa565b60405180910390a1600080549050905092915050565b60006005600083815260200190815260200160002060020160009054906101000a900473ffffffffffffffffffffffffffffffffffffffff169050919050565b60086020528060005260406000206000915090505481565b6040518060600160405280838152602001828152602001600115158152506004600084815260200190815260200160002060008201518160000155602082015181600101908051906020019061071292919061133b565b5060408201518160020160006101000a81548160ff021916908315150217905550905050600b600081548092919061074990611e60565b91905055505050565b600a5481565b60066020528060005260406000206000915090508060000154908060010154908060020154905083565b60076020528060005260406000206000915090508060000154908060020160009054906101000a900473ffffffffffffffffffffffffffffffffffffffff16905082565b6107ce611394565b60076000600860008581526020019081526020016000205481526020019081526020016000206040518060600160405290816000820154815260200160018201805480602002602001604051908101604052809291908181526020016000905b828210156108da57838290600052602060002001805461084d90611ed7565b80601f016020809104026020016040519081016040528092919081815260200182805461087990611ed7565b80156108c65780601f1061089b576101008083540402835291602001916108c6565b820191906000526020600020905b8154815290600101906020018083116108a957829003601f168201915b50505050508152602001906001019061082e565b5050505081526020016002820160009054906101000a900473ffffffffffffffffffffffffffffffffffffffff1673ffffffffffffffffffffffffffffffffffffffff1673ffffffffffffffffffffffffffffffffffffffff16815250509050919050565b816005600083815260200190815260200160002060020160006101000a81548173ffffffffffffffffffffffffffffffffffffffff021916908373ffffffffffffffffffffffffffffffffffffffff1602179055505050565b60606000600a5467ffffffffffffffff8111156109b8576109b76115ff565b5b6040519080825280602002602001820160405280156109f157816020015b6109de611394565b8152602001906001900390816109d65790505b50905060005b600280549050811015610bb1576007600060028381548110610a1c57610a1b611f08565b5b90600052602060002090600302016000015481526020019081526020016000206040518060600160405290816000820154815260200160018201805480602002602001604051908101604052809291908181526020016000905b82821015610b22578382906000526020600020018054610a9590611ed7565b80601f0160208091040260200160405190810160405280929190818152602001828054610ac190611ed7565b8015610b0e5780601f10610ae357610100808354040283529160200191610b0e565b820191906000526020600020905b815481529060010190602001808311610af157829003601f168201915b505050505081526020019060010190610a76565b5050505081526020016002820160009054906101000a900473ffffffffffffffffffffffffffffffffffffffff1673ffffffffffffffffffffffffffffffffffffffff1673ffffffffffffffffffffffffffffffffffffffff1681525050828281518110610b9357610b92611f08565b5b60200260200101819052508080610ba990611e60565b9150506109f7565b508091505090565b60095481565b60046020528060005260406000206000915090508060000154908060020160009054906101000a900460ff16905082565b60056020528060005260406000206000915090508060000154908060020160009054906101000a900473ffffffffffffffffffffffffffffffffffffffff16905082565b6000600b54905090565b600081604051602001610c519190611f73565b6040516020818303038152906040528051906020012083604051602001610c789190611f73565b6040516020818303038152906040528051906020012014905092915050565b600b5481565b60016020528060005260406000206000915090505481565b60606000600a5467ffffffffffffffff811115610cd557610cd46115ff565b5b604051908082528060200260200182016040528015610d0e57816020015b610cfb611394565b815260200190600190039081610cf35790505b50905060005b600a54811015610d31578080610d2990611e60565b915050610d14565b508091505090565b6004600082815260200190815260200160002060020160009054906101000a900460ff16610d9c576040517f08c379a0000000000000000000000000000000000000000000000000000000008152600401610d9390611fe7565b60405180910390fd5b60008080600090505b6004600085815260200190815260200160002060010180549050811015610fa65760005b6005600087815260200190815260200160002060010180549050811015610f9257610f68600460008781526020019081526020016000206001018381548110610e1557610e14611f08565b5b906000526020600020018054610e2a90611ed7565b80601f0160208091040260200160405190810160405280929190818152602001828054610e5690611ed7565b8015610ea35780601f10610e7857610100808354040283529160200191610ea3565b820191906000526020600020905b815481529060010190602001808311610e8657829003601f168201915b5050505050600560008981526020019081526020016000206001018381548110610ed057610ecf611f08565b5b906000526020600020018054610ee590611ed7565b80601f0160208091040260200160405190810160405280929190818152602001828054610f1190611ed7565b8015610f5e5780601f10610f3357610100808354040283529160200191610f5e565b820191906000526020600020905b815481529060010190602001808311610f4157829003601f168201915b5050505050610c3e565b15610f7f578380610f7890611e60565b9450508592505b8080610f8a90611e60565b915050610dc9565b508080610f9e90611e60565b915050610da5565b506004600084815260200190815260200160002060010180549050821061125e576040518060600160405280600a5481526020018581526020018481525060066000600a548152602001908152602001600020600082015181600001556020820151816001015560408201518160020155905050600a600081548092919061102d90611e60565b919050555061103a6113ce565b600a54816000018181525050848160200181815250508381604001818152505060028190806001815401808255809150506001900390600052602060002090600302016000909190919091506000820151816000015560208201518160010155604082015181600201555050604051806060016040528083815260200160056000858152602001908152602001600020600101805480602002602001604051908101604052809291908181526020016000905b8282101561119957838290600052602060002001805461110c90611ed7565b80601f016020809104026020016040519081016040528092919081815260200182805461113890611ed7565b80156111855780601f1061115a57610100808354040283529160200191611185565b820191906000526020600020905b81548152906001019060200180831161116857829003601f168201915b5050505050815260200190600101906110ed565b5050505081526020013373ffffffffffffffffffffffffffffffffffffffff1681525060076000600a5481526020019081526020016000206000820151816000015560208201518160010190805190602001906111f792919061133b565b5060408201518160020160006101000a81548173ffffffffffffffffffffffffffffffffffffffff021916908373ffffffffffffffffffffffffffffffffffffffff160217905550905050600a546008600086815260200190815260200160002081905550505b50505050565b600033905060405180606001604052808481526020018381526020018273ffffffffffffffffffffffffffffffffffffffff16815250600560008581526020019081526020016000206000820151816000015560208201518160010190805190602001906112d392919061133b565b5060408201518160020160006101000a81548173ffffffffffffffffffffffffffffffffffffffff021916908373ffffffffffffffffffffffffffffffffffffffff1602179055509050506009600081548092919061133190611e60565b9190505550505050565b828054828255906000526020600020908101928215611383579160200282015b8281111561138257825182908161137291906121b3565b509160200191906001019061135b565b5b50905061139091906113f5565b5090565b60405180606001604052806000801916815260200160608152602001600073ffffffffffffffffffffffffffffffffffffffff1681525090565b60405180606001604052806000815260200160008019168152602001600080191681525090565b5b80821115611415576000818161140c9190611419565b506001016113f6565b5090565b50805461142590611ed7565b6000825580601f106114375750611456565b601f0160209004906000526020600020908101906114559190611459565b5b50565b5b8082111561147257600081600090555060010161145a565b5090565b6000604051905090565b600080fd5b600080fd5b6000819050919050565b61149d8161148a565b81146114a857600080fd5b50565b6000813590506114ba81611494565b92915050565b6000819050919050565b6114d3816114c0565b81146114de57600080fd5b50565b6000813590506114f0816114ca565b92915050565b6000806040838503121561150d5761150c611480565b5b600061151b858286016114ab565b925050602061152c858286016114e1565b9150509250929050565b61153f816114c0565b82525050565b600060208201905061155a6000830184611536565b92915050565b60006020828403121561157657611575611480565b5b6000611584848285016114ab565b91505092915050565b600073ffffffffffffffffffffffffffffffffffffffff82169050919050565b60006115b88261158d565b9050919050565b6115c8816115ad565b82525050565b60006020820190506115e360008301846115bf565b92915050565b600080fd5b6000601f19601f8301169050919050565b7f4e487b7100000000000000000000000000000000000000000000000000000000600052604160045260246000fd5b611637826115ee565b810181811067ffffffffffffffff82111715611656576116556115ff565b5b80604052505050565b6000611669611476565b9050611675828261162e565b919050565b600067ffffffffffffffff821115611695576116946115ff565b5b602082029050602081019050919050565b600080fd5b600080fd5b600067ffffffffffffffff8211156116cb576116ca6115ff565b5b6116d4826115ee565b9050602081019050919050565b82818337600083830152505050565b60006117036116fe846116b0565b61165f565b90508281526020810184848401111561171f5761171e6116ab565b5b61172a8482856116e1565b509392505050565b600082601f830112611747576117466115e9565b5b81356117578482602086016116f0565b91505092915050565b600061177361176e8461167a565b61165f565b90508083825260208201905060208402830185811115611796576117956116a6565b5b835b818110156117dd57803567ffffffffffffffff8111156117bb576117ba6115e9565b5b8086016117c88982611732565b85526020850194505050602081019050611798565b5050509392505050565b600082601f8301126117fc576117fb6115e9565b5b813561180c848260208601611760565b91505092915050565b6000806040838503121561182c5761182b611480565b5b600061183a858286016114ab565b925050602083013567ffffffffffffffff81111561185b5761185a611485565b5b611867858286016117e7565b9150509250929050565b60006020828403121561188757611886611480565b5b6000611895848285016114e1565b91505092915050565b6118a78161148a565b82525050565b60006060820190506118c26000830186611536565b6118cf602083018561189e565b6118dc604083018461189e565b949350505050565b60006040820190506118f9600083018561189e565b61190660208301846115bf565b9392505050565b6119168161148a565b82525050565b600081519050919050565b600082825260208201905092915050565b6000819050602082019050919050565b600081519050919050565b600082825260208201905092915050565b60005b83811015611982578082015181840152602081019050611967565b83811115611991576000848401525b50505050565b60006119a282611948565b6119ac8185611953565b93506119bc818560208601611964565b6119c5816115ee565b840191505092915050565b60006119dc8383611997565b905092915050565b6000602082019050919050565b60006119fc8261191c565b611a068185611927565b935083602082028501611a1885611938565b8060005b85811015611a545784840389528151611a3585826119d0565b9450611a40836119e4565b925060208a01995050600181019050611a1c565b50829750879550505050505092915050565b611a6f816115ad565b82525050565b6000606083016000830151611a8d600086018261190d565b5060208301518482036020860152611aa582826119f1565b9150506040830151611aba6040860182611a66565b508091505092915050565b60006020820190508181036000830152611adf8184611a75565b905092915050565b611af0816115ad565b8114611afb57600080fd5b50565b600081359050611b0d81611ae7565b92915050565b60008060408385031215611b2a57611b29611480565b5b6000611b3885828601611afe565b9250506020611b49858286016114ab565b9150509250929050565b600081519050919050565b600082825260208201905092915050565b6000819050602082019050919050565b6000606083016000830151611b97600086018261190d565b5060208301518482036020860152611baf82826119f1565b9150506040830151611bc46040860182611a66565b508091505092915050565b6000611bdb8383611b7f565b905092915050565b6000602082019050919050565b6000611bfb82611b53565b611c058185611b5e565b935083602082028501611c1785611b6f565b8060005b85811015611c535784840389528151611c348582611bcf565b9450611c3f83611be3565b925060208a01995050600181019050611c1b565b50829750879550505050505092915050565b60006020820190508181036000830152611c7f8184611bf0565b905092915050565b60008115159050919050565b611c9c81611c87565b82525050565b6000604082019050611cb7600083018561189e565b611cc46020830184611c93565b9392505050565b60008060408385031215611ce257611ce1611480565b5b600083013567ffffffffffffffff811115611d0057611cff611485565b5b611d0c85828601611732565b925050602083013567ffffffffffffffff811115611d2d57611d2c611485565b5b611d3985828601611732565b9150509250929050565b6000602082019050611d586000830184611c93565b92915050565b600060208284031215611d7457611d73611480565b5b6000611d8284828501611afe565b91505092915050565b60008060408385031215611da257611da1611480565b5b6000611db0858286016114ab565b9250506020611dc1858286016114ab565b9150509250929050565b7f4e487b7100000000000000000000000000000000000000000000000000000000600052602160045260246000fd5b6000606082019050611e0f600083018661189e565b611e1c6020830185611536565b611e2960408301846115bf565b949350505050565b7f4e487b7100000000000000000000000000000000000000000000000000000000600052601160045260246000fd5b6000611e6b826114c0565b91507fffffffffffffffffffffffffffffffffffffffffffffffffffffffffffffffff8203611e9d57611e9c611e31565b5b600182019050919050565b7f4e487b7100000000000000000000000000000000000000000000000000000000600052602260045260246000fd5b60006002820490506001821680611eef57607f821691505b602082108103611f0257611f01611ea8565b5b50919050565b7f4e487b7100000000000000000000000000000000000000000000000000000000600052603260045260246000fd5b600081905092915050565b6000611f4d82611948565b611f578185611f37565b9350611f67818560208601611964565b80840191505092915050565b6000611f7f8284611f42565b915081905092915050565b600082825260208201905092915050565b7f5265717565737420646f6573206e6f742065786973742e000000000000000000600082015250565b6000611fd1601783611f8a565b9150611fdc82611f9b565b602082019050919050565b6000602082019050818103600083015261200081611fc4565b9050919050565b60008190508160005260206000209050919050565b60006020601f8301049050919050565b600082821b905092915050565b6000600883026120697fffffffffffffffffffffffffffffffffffffffffffffffffffffffffffffffff8261202c565b612073868361202c565b95508019841693508086168417925050509392505050565b6000819050919050565b60006120b06120ab6120a6846114c0565b61208b565b6114c0565b9050919050565b6000819050919050565b6120ca83612095565b6120de6120d6826120b7565b848454612039565b825550505050565b600090565b6120f36120e6565b6120fe8184846120c1565b505050565b5b81811015612122576121176000826120eb565b600181019050612104565b5050565b601f8211156121675761213881612007565b6121418461201c565b81016020851015612150578190505b61216461215c8561201c565b830182612103565b50505b505050565b600082821c905092915050565b600061218a6000198460080261216c565b1980831691505092915050565b60006121a38383612179565b9150826002028217905092915050565b6121bc82611948565b67ffffffffffffffff8111156121d5576121d46115ff565b5b6121df8254611ed7565b6121ea828285612126565b600060209050601f83116001811461221d576000841561220b578287015190505b6122158582612197565b86555061227d565b601f19841661222b86612007565b60005b828110156122535784890151825560018201915060208501945060208101905061222e565b86831015612270578489015161226c601f891682612179565b8355505b6001600288020188555050505b50505050505056fea264697066735822122066cee1dafeaedde46dcf2ce296ac99a18134f35cb9c0c625106fee71fc3e782764736f6c634300080f0033",
  "immutableReferences": {},
  "source": "// SPDX-License-Identifier: MIT\npragma solidity >=0.4.22 <0.9.0;\n\ncontract SimpleContract {\n  enum ItemStatus {\n        active,\n        sold,\n        removed\n    }\n\n    struct Item {\n        bytes32 name;\n        uint price;\n        address seller;\n        ItemStatus status;\n    }\n\n    event ItemAdded(bytes32 name, uint price, address seller);\n    event ItemPurchased(uint itemID, address buyer, address seller);\n    event ItemRemoved(uint itemID);\n    event FundsPulled(address owner, uint amount);\n\n    Item[] private _items;\n    mapping (address => uint) public _pendingWithdrawals;\n\n    modifier onlyIfItemExists(uint itemID) {\n        require(_items[itemID].seller != address(0));\n        _;\n    }\n\n    function addNewItem(bytes32 name, uint price) public returns (uint) {\n\n          _items.push(Item({\n            name: name,\n            price: price,\n            seller: msg.sender,\n            status: ItemStatus.active\n        }));\n\n        // Item is pushed to the end, so the lenth is used for\n        // the ID of the item\n\t\temit ItemAdded(name, price, msg.sender);\n        return _items.length;\n    }\n\n  struct asset {\n        bytes32 asset_id;\n        string[] asset_capabilities;\n        address owner;\n    }\n\n    struct request {\n        bytes32 rfq_id;\n        string[] rfq_capabilities;\n        //address rfq_owner;\n        bool isSet;\n\n    }\n\n    struct bid{\n        uint bid_id;\n        bytes32 bidasset_id;\n        bytes32 request_id;\n    }\n\n\n    bid[]   bids_array;\n    mapping (address => asset) asset_map;\n    mapping (bytes32 => request) public requests;\n    mapping (bytes32 => asset) public assets;\n    mapping (uint => bid) public bids;\n\n    mapping (uint => asset) public bid_asset_map;\n    mapping (bytes32 => uint) public bid_rfq_map;\n    uint public asset_count;\n    uint public bid_count;\n    uint public request_count;\n\n    constructor() public{\n        asset_count = 0;\n        request_count = 0;\n        bid_count = 0;\n    }\n\n\n    function createasset(bytes32 asset_id, string[] memory asset_capabilities) public {\n        address owner = msg.sender;\n\n        assets[asset_id] = asset(asset_id, asset_capabilities, owner);\n\n        asset_count++;\n\n    }\n\n    function createrfq(bytes32 rfq_id, string[] memory rfq_capabilities) public {\n        requests[rfq_id] = request(rfq_id, rfq_capabilities, true);\n        //all_requests.push(rfq_id);\n\t\t//emit ItemAdded(rfq_id, rfq_capabilities);\n        request_count++;\n        //console.log(\"RFQ is created\");\n    }\n    function allRfQ() public returns(uint){\n      return request_count;\n    }\n    function createbid(bytes32 bidasset_id, bytes32 request_id) public payable {\n        if (!requests[request_id].isSet) {\n            revert(\"Request does not exist.\");\n        }\n\n        uint flag = 0;\n        bytes32 bid_asset_temp;\n\n        for (uint i = 0; i < requests[request_id].rfq_capabilities.length; i++) {\n            for (uint j = 0; j < assets[bidasset_id].asset_capabilities.length; j++) {\n                if (compareStrings(requests[request_id].rfq_capabilities[i], assets[bidasset_id].asset_capabilities[j])) {\n                    flag++;\n                    bid_asset_temp = bidasset_id;\n                }\n            }\n        }\n\n        if (flag >= requests[request_id].rfq_capabilities.length){\n            bids[bid_count] = bid(bid_count, bidasset_id, request_id);\n            bid_count++;\n            bid memory m;\n            m.bid_id = bid_count;\n            m.bidasset_id = bidasset_id;\n            m.request_id = request_id;\n            bids_array.push(m);\n            //bid_asset_map[bid_id] = assets[bid_asset_temp];\n            bid_asset_map[bid_count] = asset(bid_asset_temp,assets[bid_asset_temp].asset_capabilities,msg.sender);\n            bid_rfq_map[request_id] = bid_count;//asset(bid_asset_temp,assets[bid_asset_temp].asset_capabilities,msg.sender);\n            //console.log(\"Bids: \", bid_asset_map[bid_count].asset_capabilities.length);\n        }\n\n    }\n\n    function compareStrings(string memory a, string memory b) public view returns (bool) {\n        return (keccak256(abi.encodePacked((a))) == keccak256(abi.encodePacked((b))));\n    }\n\n\n\n\n    function getAllBidsAssets() public view returns(asset[] memory) {\n        asset[] memory a_array = new asset[](bid_count);\n        for (uint i = 0; i < bid_count; i++) {\n       //     asset storage _oneasset = bid_asset_map[0];\n        //    a_array[i] = assets_array[];\n        }\n        return (a_array);\n    }\n\n\n    function getAllBids() public view returns(asset[] memory) {\n\n        //bid[] memory b_array = new bid[](bid_count);\n        asset[] memory a_array = new asset[](bid_count);\n        for (uint i = 0; i < bids_array.length; i++) {\n\n            a_array[i] = bid_asset_map[bids_array[i].bid_id];\n        //    bid storage _onebid = bids[i]; // mapping (uint => bid) bids\n        //    b_array[i] = _onebid;\n            //asset storage _oneasset = assets[i];\n            //a_array[i] = _oneasset;\n        }\n        return (a_array);\n    }\n\n\n    function getAllBidsForRFQ(bytes32 request_id) public view returns (asset memory) {\n         return bid_asset_map[bid_rfq_map[request_id]];//bid_rfq_map[request_id];\n        // asset[] memory a_array ;//= new asset[](bid_count);\n        // uint index = 0;\n        // for (uint i = 0; i < bids_array.length; i++) {\n        //    if(bids_array[i].request_id == request_id)\n        //     {\n        //         a_array[index] = bid_asset_map[bids_array[i].bid_id];\n        //         index++;\n        //     }\n        // }\n        // return (a_array);\n    }\n\n\n\n\n    function getassetOwnership(bytes32 asset_id) public view returns (address owner){\n        return assets[asset_id].owner;\n\n\n    }\n\n\n\n\n    function tranferasset(address new_owner, bytes32 asset_id) public payable {\n        assets[asset_id].owner = new_owner;\n\n    }\n}\n",
  "sourcePath": "C:\\Users\\sogol\\truffle-demo\\contracts\\SimpleContract.sol",
  "compiler": {
    "name": "solc",
    "version": "0.8.15+commit.e14f2714.Emscripten.clang"
  },
  "schemaVersion": "3.4.7",
  "updatedAt": "2022-07-01T16:56:03.668Z",
  "networkType": "ethereum",
  "devdoc": {
    "kind": "dev",
    "methods": {},
    "version": 1
  },
  "userdoc": {
    "kind": "user",
    "methods": {},
    "version": 1
  }
}