{
  "contractName": "smartAuction",
  "abi": [
    {
      "inputs": [],
      "stateMutability": "nonpayable",
      "type": "constructor"
    },
    {
      "anonymous": false,
      "inputs": [
        {
          "indexed": false,
          "internalType": "uint256",
          "name": "asset_id",
          "type": "uint256"
        },
        {
          "indexed": false,
          "internalType": "string[]",
          "name": "asset_capabilities",
          "type": "string[]"
        },
        {
          "indexed": false,
          "internalType": "address",
          "name": "sender",
          "type": "address"
        }
      ],
      "name": "assetCreated",
      "type": "event"
    },
    {
      "anonymous": false,
      "inputs": [
        {
          "indexed": false,
          "internalType": "uint256",
          "name": "request_id",
          "type": "uint256"
        },
        {
          "indexed": false,
          "internalType": "uint256",
          "name": "bid_count",
          "type": "uint256"
        },
        {
          "indexed": false,
          "internalType": "address",
          "name": "sender",
          "type": "address"
        }
      ],
      "name": "bidCreated",
      "type": "event"
    },
    {
      "anonymous": false,
      "inputs": [
        {
          "indexed": false,
          "internalType": "uint256",
          "name": "rfq_id",
          "type": "uint256"
        },
        {
          "indexed": false,
          "internalType": "string[]",
          "name": "rfq_capabilities",
          "type": "string[]"
        },
        {
          "indexed": false,
          "internalType": "address",
          "name": "sender",
          "type": "address"
        }
      ],
      "name": "rfqCreated",
      "type": "event"
    },
    {
      "inputs": [
        {
          "internalType": "uint256",
          "name": "",
          "type": "uint256"
        }
      ],
      "name": "assets",
      "outputs": [
        {
          "internalType": "uint256",
          "name": "asset_id",
          "type": "uint256"
        },
        {
          "internalType": "address",
          "name": "owner",
          "type": "address"
        }
      ],
      "stateMutability": "view",
      "type": "function",
      "constant": true
    },
    {
      "inputs": [],
      "name": "bid_count",
      "outputs": [
        {
          "internalType": "uint256",
          "name": "",
          "type": "uint256"
        }
      ],
      "stateMutability": "view",
      "type": "function",
      "constant": true
    },
    {
      "inputs": [
        {
          "internalType": "uint256",
          "name": "",
          "type": "uint256"
        }
      ],
      "name": "bids",
      "outputs": [
        {
          "internalType": "uint256",
          "name": "bid_id",
          "type": "uint256"
        },
        {
          "internalType": "uint256",
          "name": "bidasset_id",
          "type": "uint256"
        },
        {
          "internalType": "uint256",
          "name": "request_id",
          "type": "uint256"
        }
      ],
      "stateMutability": "view",
      "type": "function",
      "constant": true
    },
    {
      "inputs": [
        {
          "internalType": "uint256",
          "name": "",
          "type": "uint256"
        }
      ],
      "name": "number_of_bids_per_rfq",
      "outputs": [
        {
          "internalType": "uint256",
          "name": "",
          "type": "uint256"
        }
      ],
      "stateMutability": "view",
      "type": "function",
      "constant": true
    },
    {
      "inputs": [],
      "name": "request_count",
      "outputs": [
        {
          "internalType": "uint256",
          "name": "",
          "type": "uint256"
        }
      ],
      "stateMutability": "view",
      "type": "function",
      "constant": true
    },
    {
      "inputs": [
        {
          "internalType": "uint256",
          "name": "",
          "type": "uint256"
        }
      ],
      "name": "requests",
      "outputs": [
        {
          "internalType": "uint256",
          "name": "rfq_id",
          "type": "uint256"
        },
        {
          "internalType": "bool",
          "name": "isSet",
          "type": "bool"
        },
        {
          "internalType": "uint256",
          "name": "number_of_bids",
          "type": "uint256"
        }
      ],
      "stateMutability": "view",
      "type": "function",
      "constant": true
    },
    {
      "inputs": [
        {
          "internalType": "uint256",
          "name": "asset_id",
          "type": "uint256"
        },
        {
          "internalType": "string[]",
          "name": "asset_capabilities",
          "type": "string[]"
        }
      ],
      "name": "createasset",
      "outputs": [],
      "stateMutability": "nonpayable",
      "type": "function"
    },
    {
      "inputs": [
        {
          "internalType": "uint256",
          "name": "rfq_id",
          "type": "uint256"
        },
        {
          "internalType": "string[]",
          "name": "rfq_capabilities",
          "type": "string[]"
        }
      ],
      "name": "createrfq",
      "outputs": [],
      "stateMutability": "nonpayable",
      "type": "function"
    },
    {
      "inputs": [
        {
          "internalType": "uint256",
          "name": "bidasset_id",
          "type": "uint256"
        },
        {
          "internalType": "uint256",
          "name": "request_id",
          "type": "uint256"
        }
      ],
      "name": "createbid",
      "outputs": [],
      "stateMutability": "payable",
      "type": "function",
      "payable": true
    },
    {
      "inputs": [
        {
          "internalType": "string",
          "name": "a",
          "type": "string"
        },
        {
          "internalType": "string",
          "name": "b",
          "type": "string"
        }
      ],
      "name": "compareStrings",
      "outputs": [
        {
          "internalType": "bool",
          "name": "",
          "type": "bool"
        }
      ],
      "stateMutability": "view",
      "type": "function",
      "constant": true
    },
    {
      "inputs": [],
      "name": "getAllBidsAssets",
      "outputs": [
        {
          "components": [
            {
              "internalType": "uint256",
              "name": "asset_id",
              "type": "uint256"
            },
            {
              "internalType": "string[]",
              "name": "asset_capabilities",
              "type": "string[]"
            },
            {
              "internalType": "address",
              "name": "owner",
              "type": "address"
            }
          ],
          "internalType": "struct smartAuction.asset[]",
          "name": "",
          "type": "tuple[]"
        }
      ],
      "stateMutability": "view",
      "type": "function",
      "constant": true
    },
    {
      "inputs": [],
      "name": "getAllBidsCount",
      "outputs": [
        {
          "internalType": "uint256",
          "name": "",
          "type": "uint256"
        }
      ],
      "stateMutability": "view",
      "type": "function",
      "constant": true
    },
    {
      "inputs": [
        {
          "internalType": "uint256",
          "name": "asset_id",
          "type": "uint256"
        }
      ],
      "name": "getAssetOwnership",
      "outputs": [
        {
          "internalType": "address",
          "name": "owner",
          "type": "address"
        }
      ],
      "stateMutability": "view",
      "type": "function",
      "constant": true
    },
    {
      "inputs": [
        {
          "internalType": "address",
          "name": "new_owner",
          "type": "address"
        },
        {
          "internalType": "uint256",
          "name": "rfq_id",
          "type": "uint256"
        },
        {
          "internalType": "uint256",
          "name": "asset_id",
          "type": "uint256"
        }
      ],
      "name": "tranferasset",
      "outputs": [],
      "stateMutability": "payable",
      "type": "function",
      "payable": true
    },
    {
      "inputs": [],
      "name": "getAllRequestsCount",
      "outputs": [
        {
          "internalType": "uint256",
          "name": "",
          "type": "uint256"
        }
      ],
      "stateMutability": "nonpayable",
      "type": "function"
    }
  ],
  "bytecode": "0x608060405234801561001057600080fd5b506000600781905560065561142f8061002a6000396000f3fe608060405260043610610105576000357c01000000000000000000000000000000000000000000000000000000009004806381d12c58116100a7578063c1d01ad811610076578063c1d01ad8146102d2578063c39db4951461033e578063c76f292f14610351578063cf35bdd01461037357600080fd5b806381d12c581461021f5780639e9cf4b814610279578063bed34bba1461028c578063c0562168146102bc57600080fd5b80634423c5f1116100e35780634423c5f11461016657806352b4ceff146101bd57806364204585146101d25780637967ad7c146101ff57600080fd5b80630815f13d1461010a5780631f340dea1461012e5780633b3c6b0614610150575b600080fd5b34801561011657600080fd5b506007545b6040519081526020015b60405180910390f35b34801561013a57600080fd5b5061014e610149366004610e08565b6103e7565b005b34801561015c57600080fd5b5061011b60065481565b34801561017257600080fd5b506101a2610181366004610ed6565b60036020526000908152604090208054600182015460029092015490919083565b60408051938452602084019290925290820152606001610125565b3480156101c957600080fd5b5060065461011b565b3480156101de57600080fd5b5061011b6101ed366004610ed6565b60056020526000908152604090205481565b34801561020b57600080fd5b5061014e61021a366004610e08565b6104ae565b34801561022b57600080fd5b5061025e61023a366004610ed6565b600160205260009081526040902080546002820154600390920154909160ff169083565b60408051938452911515602084015290820152606001610125565b61014e610287366004610eef565b610566565b34801561029857600080fd5b506102ac6102a7366004610f11565b610976565b6040519015158152602001610125565b3480156102c857600080fd5b5061011b60075481565b3480156102de57600080fd5b506103196102ed366004610ed6565b6000908152600260208190526040909120015473ffffffffffffffffffffffffffffffffffffffff1690565b60405173ffffffffffffffffffffffffffffffffffffffff9091168152602001610125565b61014e61034c366004610f75565b6109cf565b34801561035d57600080fd5b50610366610b79565b6040516101259190611058565b34801561037f57600080fd5b506103bd61038e366004610ed6565b6002602081905260009182526040909120805491015473ffffffffffffffffffffffffffffffffffffffff1682565b6040805192835273ffffffffffffffffffffffffffffffffffffffff909116602083015201610125565b60408051608081018252838152602080820184815260018385018190526000606085018190528781528184529490942083518155905180519394919361043593928501929190910190610c2b565b50604082015160028201805460ff19169115159190911790556060909101516003909101556007805490600061046a836110ec565b91905055507fa191ab8a22c21ac3244630b63f1b3c87c0e72cf105ad3fea5d47b722ad1475338282336040516104a29392919061112c565b60405180910390a15050565b60408051606081018252838152602080820184815233838501526000868152600283529390932082518155925180519293926104f09260018501920190610c2b565b50604091820151600291909101805473ffffffffffffffffffffffffffffffffffffffff191673ffffffffffffffffffffffffffffffffffffffff909216919091179055517fc550c01e728327fe0dd23cc2cebbabfec653075f2112933f939858621ba850a8906104a29084908490339061112c565b60008181526001602052604090206002015460ff166105e5576040517f08c379a000000000000000000000000000000000000000000000000000000000815260206004820152601760248201527f5265717565737420646f6573206e6f742065786973742e000000000000000000604482015260640160405180910390fd5b600080805b600084815260016020819052604090912001548110156107d55760005b6000868152600260205260409020600101548110156107c25761079a60016000878152602001908152602001600020600101838154811061064a5761064a61116b565b90600052602060002001805461065f9061119a565b80601f016020809104026020016040519081016040528092919081815260200182805461068b9061119a565b80156106d85780601f106106ad576101008083540402835291602001916106d8565b820191906000526020600020905b8154815290600101906020018083116106bb57829003601f168201915b50505060008a8152600260205260409020600101805490925085915081106107025761070261116b565b9060005260206000200180546107179061119a565b80601f01602080910402602001604051908101604052809291908181526020018280546107439061119a565b80156107905780601f1061076557610100808354040283529160200191610790565b820191906000526020600020905b81548152906001019060200180831161077357829003601f168201915b5050505050610976565b156107b057836107a9816110ec565b9450508592505b806107ba816110ec565b915050610607565b50806107cd816110ec565b9150506105ea565b5060008381526001602081905260409091200154821061092e5760408051606081018252600680548083526020808401898152848601898152600093845260039092529482209351845593516001840155925160029092019190915580549161083d836110ec565b90915550506000838152602081815260408083208784526002835290832081546001818101845592855292909320835460039093020191825580830180546108889284019190610c81565b506002918201549101805473ffffffffffffffffffffffffffffffffffffffff191673ffffffffffffffffffffffffffffffffffffffff90921691909117905560008381526001602052604081206003018054916108e5836110ec565b90915550506000848152600460209081526040808320805473ffffffffffffffffffffffffffffffffffffffff1990811633179091556002928390529220018054909116301790555b6006546040805186815260208101929092523382820152517fa29da1f0e7a1a2afe32d7657d7e294977f0f814f194a4ef378fa2d939e7669619181900360600190a150505050565b60008160405160200161098991906111e7565b60405160208183030381529060405280519060200120836040516020016109b091906111e7565b6040516020818303038152906040528051906020012014905092915050565b60005b600083815260016020526040902060030154811015610b7357816000808581526020019081526020016000208281548110610a0f57610a0f61116b565b90600052602060002090600302016000015403610a7057600082815260026020819052604090912001805473ffffffffffffffffffffffffffffffffffffffff191673ffffffffffffffffffffffffffffffffffffffff8616179055610b61565b600460008060008681526020019081526020016000208381548110610a9757610a9761116b565b906000526020600020906003020160000154815260200190815260200160002060009054906101000a900473ffffffffffffffffffffffffffffffffffffffff16600260008060008781526020019081526020016000208481548110610aff57610aff61116b565b906000526020600020906003020160000154815260200190815260200160002060020160006101000a81548173ffffffffffffffffffffffffffffffffffffffff021916908373ffffffffffffffffffffffffffffffffffffffff1602179055505b80610b6b816110ec565b9150506109d2565b50505050565b6060600060065467ffffffffffffffff811115610b9857610b98610d38565b604051908082528060200260200182016040528015610c0357816020015b610bf060405180606001604052806000815260200160608152602001600073ffffffffffffffffffffffffffffffffffffffff1681525090565b815260200190600190039081610bb65790505b50905060005b600654811015610c255780610c1d816110ec565b915050610c09565b50919050565b828054828255906000526020600020908101928215610c71579160200282015b82811115610c715782518290610c619082611252565b5091602001919060010190610c4b565b50610c7d929150610cc9565b5090565b828054828255906000526020600020908101928215610c715760005260206000209182015b82811115610c715781610cb98482611318565b5091600101919060010190610ca6565b80821115610c7d576000610cdd8282610ce6565b50600101610cc9565b508054610cf29061119a565b6000825580601f10610d02575050565b601f016020900490600052602060002090810190610d209190610d23565b50565b5b80821115610c7d5760008155600101610d24565b7f4e487b7100000000000000000000000000000000000000000000000000000000600052604160045260246000fd5b604051601f8201601f1916810167ffffffffffffffff81118282101715610d9057610d90610d38565b604052919050565b600082601f830112610da957600080fd5b813567ffffffffffffffff811115610dc357610dc3610d38565b610dd6601f8201601f1916602001610d67565b818152846020838601011115610deb57600080fd5b816020850160208301376000918101602001919091529392505050565b60008060408385031215610e1b57600080fd5b8235915060208084013567ffffffffffffffff80821115610e3b57600080fd5b818601915086601f830112610e4f57600080fd5b813581811115610e6157610e61610d38565b838102610e6f858201610d67565b918252838101850191858101908a841115610e8957600080fd5b86860192505b83831015610ec557823585811115610ea75760008081fd5b610eb58c89838a0101610d98565b8352509186019190860190610e8f565b809750505050505050509250929050565b600060208284031215610ee857600080fd5b5035919050565b60008060408385031215610f0257600080fd5b50508035926020909101359150565b60008060408385031215610f2457600080fd5b823567ffffffffffffffff80821115610f3c57600080fd5b610f4886838701610d98565b93506020850135915080821115610f5e57600080fd5b50610f6b85828601610d98565b9150509250929050565b600080600060608486031215610f8a57600080fd5b833573ffffffffffffffffffffffffffffffffffffffff81168114610fae57600080fd5b95602085013595506040909401359392505050565b60005b83811015610fde578181015183820152602001610fc6565b83811115610b735750506000910152565b600081518084526020808501945084818302860182860160005b8581101561104b5783830389528151805180855261102c81888701898501610fc3565b99860199601f01601f1916939093018501925090840190600101611009565b5090979650505050505050565b60208082528251828201819052600091906040908185019080840286018301878501865b838110156110de57603f19898403018552815160608151855288820151818a8701526110aa82870182610fef565b9289015173ffffffffffffffffffffffffffffffffffffffff1695890195909552509487019492509086019060010161107c565b509098975050505050505050565b600060018201611125577f4e487b7100000000000000000000000000000000000000000000000000000000600052601160045260246000fd5b5060010190565b8381526060602082015260006111456060830185610fef565b905073ffffffffffffffffffffffffffffffffffffffff83166040830152949350505050565b7f4e487b7100000000000000000000000000000000000000000000000000000000600052603260045260246000fd5b6002810460018216806111ae57607f821691505b602082108103610c25577f4e487b7100000000000000000000000000000000000000000000000000000000600052602260045260246000fd5b600082516111f9818460208701610fc3565b9190910192915050565b601f82111561124d576000818152602081206020601f8601048101602086101561122a5750805b6020601f860104820191505b8181101561124957828155600101611236565b5050505b505050565b815167ffffffffffffffff81111561126c5761126c610d38565b6112808161127a845461119a565b84611203565b602080601f8311600181146112b9576000841561129d5750858301515b60028086026008870290910a6000190419821617865550611249565b600085815260208120601f198616915b828110156112e8578886015182559484019460019091019084016112c9565b508582101561130857878501516008601f88160260020a60001904191681555b5050505050600202600101905550565b818103611323575050565b61132d825461119a565b67ffffffffffffffff81111561134557611345610d38565b6113538161127a845461119a565b6000601f82116001811461138b576000831561136f5750848201545b60028085026008860290910a60001904198216178555506113f2565b600085815260209020601f19841690600086815260209020845b838110156113c557828601548255600195860195909101906020016113a5565b50858310156113e557818501546008601f88160260020a60001904191681555b5050506001600284020184555b505050505056fea2646970667358221220471e8636dcc7f29c3db0b681ffec1be1021dfef22f986fba4a51ea90c49f4dc164736f6c634300080f0033",
  "immutableReferences": {},
  "source": "// SPDX-License-Identifier: MIT\npragma solidity >=0.4.22 <0.9.0;\n\n\ncontract smartAuction {\n\n  event assetCreated(uint asset_id, string[]  asset_capabilities, address sender);\n  event rfqCreated(uint rfq_id, string[]  rfq_capabilities, address sender);\n  event bidCreated(uint request_id, uint  bid_count, address sender);\n  struct asset {\n        uint asset_id;\n        string[] asset_capabilities;\n        address owner;\n    }\n\n    struct request {\n        uint rfq_id;\n        string[] rfq_capabilities;\n        //address rfq_owner;\n        bool isSet;\n        uint number_of_bids;\n    }\n\n    struct bid{\n        uint bid_id;\n        uint bidasset_id;\n        uint request_id;\n    }\n\n\n  //  bid[]   bids_array;\n    mapping (uint => asset[]) rfq_to_asset_map;\n    mapping (uint => request) public requests;\n    mapping (uint => asset) public assets;\n    mapping (uint => bid) public bids;\n    mapping (uint => address) original_asset_owner;\n    mapping (uint => uint) public number_of_bids_per_rfq;\n  //  mapping (uint => asset) public bid_asset_map;\n  //  mapping (uint => uint) public bid_rfq_map;\n  //  uint public asset_count;\n    uint public bid_count;\n    uint public request_count;\n\n    constructor() public{\n      //  asset_count = 0;\n        request_count = 0;\n        bid_count = 0;\n    }\n\n\n    function createasset(uint asset_id, string[] memory asset_capabilities) public   {\n        //address owner = msg.sender;\n        assets[asset_id] = asset(asset_id, asset_capabilities, msg.sender);\n\n      //  asset_count++;\n        emit assetCreated(asset_id, asset_capabilities, msg.sender);\n\n    }\n\n    function createrfq(uint rfq_id, string[] memory rfq_capabilities) public {\n        requests[rfq_id] = request(rfq_id, rfq_capabilities, true, 0);\n        request_count++;\n        emit rfqCreated(rfq_id, rfq_capabilities, msg.sender);\n\n    }\n\n    /* function getRFQ(uint request_id) public view returns (uint) {\n         return request_count;\n    } */\n\n    function createbid(uint bidasset_id, uint request_id) public payable {\n        if (!requests[request_id].isSet) {\n            revert(\"Request does not exist.\");\n        }\n\n        uint flag = 0;\n        uint bid_asset_temp;\n\n         for (uint i = 0; i < requests[request_id].rfq_capabilities.length; i++) {\n            for (uint j = 0; j < assets[bidasset_id].asset_capabilities.length; j++) {\n                if (compareStrings(requests[request_id].rfq_capabilities[i], assets[bidasset_id].asset_capabilities[j])) {\n                    flag++;\n                    bid_asset_temp = bidasset_id;\n                }\n            }\n        }\n\n        if (flag >= requests[request_id].rfq_capabilities.length) {\n            bids[bid_count] = bid(bid_count, bidasset_id, request_id);\n            bid_count++;\n            /* bid memory m;\n            m.bid_id = bid_count;\n            m.bidasset_id = bidasset_id;\n            m.request_id = request_id; */\n          //  bids_array.push(m);\n\n          //  bid_asset_map[bid_count] = asset(bid_asset_temp, assets[bid_asset_temp].asset_capabilities, msg.sender);\n          //  bid_rfq_map[request_id] = bid_count;\n            rfq_to_asset_map[request_id].push(assets[bidasset_id]);\n            requests[request_id].number_of_bids++;\n            original_asset_owner[bidasset_id] = msg.sender;\n            assets[bidasset_id].owner = address(this);\n        }\n        emit bidCreated(bidasset_id, bid_count, msg.sender);\n\n\n    }\n\n    function compareStrings(string memory a, string memory b) public view returns (bool) {\n        return (keccak256(abi.encodePacked((a))) == keccak256(abi.encodePacked((b))));\n    }\n\n\n    function getAllBidsAssets() public view returns(asset[] memory) {\n        asset[] memory a_array = new asset[](bid_count);\n        for (uint i = 0; i < bid_count; i++) {\n       //     asset storage _oneasset = bid_asset_map[0];\n        //    a_array[i] = assets_array[];\n        }\n        return (a_array);\n    }\n\n\n    function getAllBidsCount() public view returns(uint) {\n        return bid_count;\n        /* asset[] memory a_array = new asset[](bid_count);\n        for (uint i = 0; i < bids_array.length; i++) {\n\n            a_array[i] = bid_asset_map[bids_array[i].bid_id];\n        }\n        return (a_array); */\n    }\n\n\n    /* function getAllBidsForRFQ(uint request_id) public view returns (asset memory) {\n        return bid_asset_map[bid_rfq_map[request_id]];//bid_rfq_map[request_id];\n    } */\n\n\n\n\n    function getAssetOwnership(uint asset_id) public view returns (address owner){\n        return assets[asset_id].owner;\n    }\n\n\n\n\n    function tranferasset(address new_owner,uint rfq_id, uint asset_id) public payable {\n        /* if (!requests[request_id].isSet) {\n            revert(\"Bid does not exist.\");\n        } */\n        uint i = 0;\n        for(i=0; i<requests[rfq_id].number_of_bids; i++)\n        {\n          if(rfq_to_asset_map[rfq_id][i].asset_id == asset_id)\n          {\n            assets[asset_id].owner = new_owner;\n          }\n\n          else\n          {\n            assets[rfq_to_asset_map[rfq_id][i].asset_id].owner = original_asset_owner[rfq_to_asset_map[rfq_id][i].asset_id];\n           //console.log(\"!!!!original owner\", assets[rfq_to_asset_map[rfq_id][i].asset_id].owner);\n          }\n        }\n\n\n\n    }\n    function getAllRequestsCount() public returns (uint) {\n        return request_count;\n\n    }\n}\n",
  "sourcePath": "/root/auctionlarge/contracts/smartAuction.sol",
  "compiler": {
    "name": "solc",
    "version": "0.8.15+commit.e14f2714.Emscripten.clang"
  },
  "schemaVersion": "3.4.10",
  "updatedAt": "2022-10-10T18:54:52.998Z",
  "networkType": "ethereum",
  "devdoc": {
    "kind": "dev",
    "methods": {},
    "version": 1
  },
  "userdoc": {
    "kind": "user",
    "methods": {},
    "version": 1
  }
}